:100000000C9446000C9465000C9465000C946500FB
:100010000C9465000C9465000C9465000C946500CC
:100020000C9465000C9465000C9465000C946500BC
:100030000C9465000C9465000C9485010C9465008B
:100040000C9465000C9465000C9465000C9465009C
:100050000C9465000C9465000C9465000C9465008C
:100060000C9465000C9465000C9465000C9465007C
:100070000C9465000C9465000C94CA010C94650006
:100080000C9465000C9465000C94650011241FBE4F
:10009000CFEFD0E1DEBFCDBF11E0A0E0B1E0E8E8F6
:1000A000F6E000E00BBF02C007900D92A230B1074E
:1000B000D9F711E0A2E0B1E001C01D92A630B1076E
:1000C000E1F70E94C5000C9442030C9400001A98BA
:1000D0001998189A95E0292F2A95F1F788BB9A95D7
:1000E000F1F7189808951A9A1998189A88BB85E01C
:1000F000982F9A95F1F718988A95F1F708950F932C
:100100001F938EEE92E020E931E0F9013197F1F78B
:100110000197D9F780E30E9467008AEF90E020E919
:1001200031E0F9013197F1F70197D9F780E30E94A7
:10013000670000E21EE4C8010197F1F780E30E9426
:100140006700C8010197F1F788E30E946700C801C2
:100150000197F1F788E00E946700C8010197F1F765
:1001600081E00E946700C8010197F1F784E00E94D6
:100170006700C8010197F1F78CE00E946700C80191
:100180000197F1F71F910F910895F89488E081BBD2
:1001900097E092B98FEF87BB8093610090939D00A9
:1001A00088E980939A00109298008FE280939900DA
:1001B00088EE93E020E931E0F9013197F1F70197FA
:1001C000D9F70E947F008BE80E94670080E49CE9D9
:1001D0000197F1F78AE30E94730088EE93E020E92B
:1001E00031E0F9013197F1F70197D9F78CE40E94DA
:1001F000730088EE93E020E931E0F9013197F1F7DF
:100200000197D9F785E40E94730088EE93E020E916
:1002100031E0F9013197F1F70197D9F786E50E94AE
:10022000730088EE93E020E931E0F9013197F1F7AE
:100230000197D9F785E40E94730088EE93E020E9E6
:1002400031E0F9013197F1F70197D9F78CE40E9479
:10025000730088EE93E020E931E0F9013197F1F77E
:100260000197D9F780E20E94730088EE93E020E9BD
:1002700031E0F9013197F1F70197D9F782E50E9452
:10028000730088EE93E020E931E0F9013197F1F74E
:100290000197D9F785E40E94730088EE93E020E986
:1002A00031E0F9013197F1F70197D9F784E50E9420
:1002B000730088EE93E020E931E0F9013197F1F71E
:1002C0000197D9F781E40E94730088EE93E020E95A
:1002D00031E0F9013197F1F70197D9F787E50E94ED
:1002E000730088EE93E020E931E0F9013197F1F7EE
:1002F0000197D9F784E087BF1FBC85E08EBD8FEFE3
:100300008DBD80EC8CBD7894FFCF1F920F920FB6FD
:100310000F9211242F938F939F93F8942FEF2DBD5D
:1003200082E68CBD8091040190910501892BA9F48E
:100330008091000190910101892B39F02093620096
:10034000109201011092000108C01092620081E039
:1003500090E0909301018093000178949F918F9198
:100360002F910F900FBE0F901F9018959C01019731
:10037000029710F481E00BC02530310510F483E0C2
:1003800006C02730310510F487E001C08FE080936C
:10039000620008951F920F920FB60F920BB60F9244
:1003A00011242F933F934F935F936F937F938F937A
:1003B0009F93AF93BF93EF93FF93F89480919C002A
:1003C00090E0909305018093040188EE93E020E98A
:1003D00031E0F9013197F1F70197D9F780910401E4
:1003E00090910501892B09F038C08FEC0E946700BD
:1003F00080E49CE90197F1F785E20E94730088EEA2
:1004000093E020E931E0F9013197F1F70197D9F74D
:1004100080E30E94730088EE93E020E931E0F90167
:100420003197F1F70197D9F780E20E94730088EEC7
:1004300093E020E931E0F9013197F1F70197D9F71D
:1004400080E20E94730088EE93E020E931E0F90138
:100450003197F1F70197D9F7FBC080910401909192
:100460000501039708F038C08FEC0E94670080E414
:100470009CE90197F1F785E20E94730088EE93E012
:1004800020E931E0F9013197F1F70197D9F785E3D8
:100490000E94730088EE93E020E931E0F901319782
:1004A000F1F70197D9F782E30E94730088EE93E099
:1004B00020E931E0F9013197F1F70197D9F780E2AE
:1004C0000E94730088EE93E020E931E0F901319752
:1004D000F1F70197D9F7BCC0809104019091050113
:1004E000059708F038C08FEC0E94670080E49CE913
:1004F0000197F1F785E20E94730088EE93E020E90E
:1005000031E0F9013197F1F70197D9F780E30E94C3
:10051000730088EE93E020E931E0F9013197F1F7BB
:100520000197D9F785E30E94730088EE93E020E9F4
:1005300031E0F9013197F1F70197D9F780E20E9494
:10054000730088EE93E020E931E0F9013197F1F78B
:100550000197D9F77DC0809104019091050107971B
:1005600008F038C08FEC0E94670080E49CE9019796
:10057000F1F785E20E94730088EE93E020E931E014
:10058000F9013197F1F70197D9F785E30E947300DC
:1005900088EE93E020E931E0F9013197F1F7019716
:1005A000D9F787E30E94730088EE93E020E931E0F9
:1005B000F9013197F1F70197D9F780E20E947300B2
:1005C00088EE93E020E931E0F9013197F1F70197E6
:1005D000D9F73EC08091040190910501079708F476
:1005E00037C08FEC0E94670080E49CE90197F1F727
:1005F00085E20E94730088EE93E020E931E0F90182
:100600003197F1F70197D9F780E30E94730088EEE4
:1006100093E020E931E0F9013197F1F70197D9F73B
:1006200080E30E94730088EE93E020E931E0F90155
:100630003197F1F70197D9F781E30E94730088EEB3
:1006400093E020E931E0F9013197F1F70197D9F70B
:1006500080910401909105010E94B6017894FF9168
:10066000EF91BF91AF919F918F917F916F915F912A
:100670004F913F912F910F900BBE0F900FBE0F9097
:080680001F901895F894FFCFBC
:0206880001006F
:00000001FF
