:100000000C9446000C9465000C9465000C946500FB
:100010000C9465000C9465000C9465000C946500CC
:100020000C9465000C9465000C9465000C946500BC
:100030000C9465000C9465000C942D030C946500E1
:100040000C9465000C9465000C9465000C9465009C
:100050000C9465000C9465000C9465000C9465008C
:100060000C9465000C9465000C9465000C9465007C
:100070000C9465000C9465000C9499010C94650037
:100080000C9465000C9465000C94650011241FBE4F
:10009000CFEFD0E1DEBFCDBF11E0A0E0B1E0EEEFE9
:1000A000F6E000E00BBF02C007900D92A230B1074E
:1000B000D9F711E0A2E0B1E001C01D92A430B10770
:1000C000E1F70E94C5000C947D030C9400001A987F
:1000D0001998189A95E0292F2A95F1F788BB9A95D7
:1000E000F1F7189808951A9A1998189A88BB85E01C
:1000F000982F9A95F1F718988A95F1F708950F932C
:100100001F938EEE92E020E931E0F9013197F1F78B
:100110000197D9F780E30E9467008AEF90E020E919
:1001200031E0F9013197F1F70197D9F780E30E94A7
:10013000670000E21EE4C8010197F1F780E30E9426
:100140006700C8010197F1F788E30E946700C801C2
:100150000197F1F788E00E946700C8010197F1F765
:1001600081E00E946700C8010197F1F784E00E94D6
:100170006700C8010197F1F78CE00E946700C80191
:100180000197F1F71F910F910895F8948CE081BBCE
:1001900097E092B98FEF87BB8093610090939D00A9
:1001A00088E980939A00109298008FE280939900DA
:1001B00088EE93E020E931E0F9013197F1F70197FA
:1001C000D9F70E947F008BE80E94670080E49CE9D9
:1001D0000197F1F78AE30E94730088EE93E020E92B
:1001E00031E0F9013197F1F70197D9F78CE40E94DA
:1001F000730088EE93E020E931E0F9013197F1F7DF
:100200000197D9F785E40E94730088EE93E020E916
:1002100031E0F9013197F1F70197D9F786E50E94AE
:10022000730088EE93E020E931E0F9013197F1F7AE
:100230000197D9F785E40E94730088EE93E020E9E6
:1002400031E0F9013197F1F70197D9F78CE40E9479
:10025000730088EE93E020E931E0F9013197F1F77E
:100260000197D9F780E20E94730088EE93E020E9BD
:1002700031E0F9013197F1F70197D9F782E50E9452
:10028000730088EE93E020E931E0F9013197F1F74E
:100290000197D9F785E40E94730088EE93E020E986
:1002A00031E0F9013197F1F70197D9F784E50E9420
:1002B000730088EE93E020E931E0F9013197F1F71E
:1002C0000197D9F781E40E94730088EE93E020E95A
:1002D00031E0F9013197F1F70197D9F787E50E94ED
:1002E000730088EE93E020E931E0F9013197F1F7EE
:1002F0000197D9F784E087BF1FBC85E08EBD8FEFE3
:100300008DBD80EC8CBD7894FFCF9C010197029746
:1003100010F481E00BC02530310510F483E006C0F5
:100320002730310510F487E001C08FE08093620030
:1003300008951F920F920FB60F920BB60F921124D1
:100340002F933F934F935F936F937F938F939F93DD
:10035000AF93BF93EF93FF93F89480919C0090E04C
:10036000909303018093020188EE93E020E931E04D
:10037000F9013197F1F70197D9F780910201909136
:100380000301892B09F038C08FEC0E94670080E4DC
:100390009CE90197F1F785E20E94730088EE93E0F3
:1003A00020E931E0F9013197F1F70197D9F780E3BE
:1003B0000E94730088EE93E020E931E0F901319763
:1003C000F1F70197D9F780E20E94730088EE93E07D
:1003D00020E931E0F9013197F1F70197D9F780E28F
:1003E0000E94730088EE93E020E931E0F901319733
:1003F000F1F70197D9F7FBC08091020190910301B9
:10040000039708F038C08FEC0E94670080E49CE9F5
:100410000197F1F785E20E94730088EE93E020E9EE
:1004200031E0F9013197F1F70197D9F785E30E949F
:10043000730088EE93E020E931E0F9013197F1F79C
:100440000197D9F782E30E94730088EE93E020E9D8
:1004500031E0F9013197F1F70197D9F780E20E9475
:10046000730088EE93E020E931E0F9013197F1F76C
:100470000197D9F7BCC080910201909103010597C3
:1004800008F038C08FEC0E94670080E49CE9019777
:10049000F1F785E20E94730088EE93E020E931E0F5
:1004A000F9013197F1F70197D9F780E30E947300C2
:1004B00088EE93E020E931E0F9013197F1F70197F7
:1004C000D9F785E30E94730088EE93E020E931E0DC
:1004D000F9013197F1F70197D9F780E20E94730093
:1004E00088EE93E020E931E0F9013197F1F70197C7
:1004F000D9F77DC08091020190910301079708F020
:1005000038C08FEC0E94670080E49CE90197F1F706
:1005100085E20E94730088EE93E020E931E0F90162
:100520003197F1F70197D9F785E30E94730088EEC0
:1005300093E020E931E0F9013197F1F70197D9F71C
:1005400087E30E94730088EE93E020E931E0F9012F
:100550003197F1F70197D9F780E20E94730088EE96
:1005600093E020E931E0F9013197F1F70197D9F7EC
:100570003EC08091020190910301079708F437C0B3
:100580008FEC0E94670080E49CE90197F1F785E217
:100590000E94730088EE93E020E931E0F901319781
:1005A000F1F70197D9F780E30E94730088EE93E09A
:1005B00020E931E0F9013197F1F70197D9F780E3AC
:1005C0000E94730088EE93E020E931E0F901319751
:1005D000F1F70197D9F781E30E94730088EE93E069
:1005E00020E931E0F9013197F1F70197D9F78091CE
:1005F0000201909103010E9485017894FF91EF918F
:10060000BF91AF919F918F917F916F915F914F912A
:100610003F912F910F900BBE0F900FBE0F901F9028
:1006200018955D9BFECF009719F420E030E013C0D1
:100630008330910518F425E230E00DC08530910536
:1006400018F420E530E007C0079718F026E430E002
:1006500002C025E730E0C90108951F920F920FB63E
:100660000F920BB60F9211242F933F934F935F93EA
:100670006F937F938F939F93AF93BF93EF93FF936A
:10068000F89481EE8DBD8AE78CBD80910201909136
:100690000301892BB1F48091000190910101892B14
:1006A00041F08FEF809362001092010110920001DF
:1006B00008C01092620081E090E090930101809365
:1006C000000180910201909103010E941103809327
:1006D0009C007894FF91EF91BF91AF919F918F9182
:1006E0007F916F915F914F913F912F910F900BBE32
:0E06F0000F900FBE0F901F901895F894FFCF3B
:0206FE000100F9
:00000001FF
