:100000000C9446000C9465000C9465000C946500FB
:100010000C9465000C9465000C9465000C946500CC
:100020000C9465000C9465000C9465000C946500BC
:100030000C9465000C9465000C947A000C94650097
:100040000C9465000C9465000C9465000C9465009C
:100050000C9465000C9465000C9465000C9465008C
:100060000C9465000C9465000C9465000C9465007C
:100070000C9465000C9465000C9465000C9465006C
:100080000C9465000C9465000C94650011241FBE4F
:10009000CFEFD0E1DEBFCDBF11E0A0E0B1E0EAE8F4
:1000A000F1E000E00BBF02C007900D92A030B10755
:1000B000D9F711E0A0E0B1E001C01D92A730B1076F
:1000C000E1F70E9467000C94C3000C940000F894C0
:1000D000109261008FEF87BB789484E087BF1FBCCC
:1000E00085E08EBD8FEF8DBD80EC8CBD17B883E8A9
:1000F00086B9FFCF1F920F920FB60F9211242F9344
:100100003F938F939F93F8948FEF8DBD8BEF8CBDB2
:10011000369A3699FECF84B18093040185B18093DD
:1001200003013091040120910301922F80E0830F9D
:10013000911D90930601809305018091010190919A
:100140000201019690930201809301012091010127
:10015000309102018091050190910601281739071D
:1001600018F480E188BB05C018BA10920201109201
:10017000010178949F918F913F912F910F900FBE25
:0A0180000F901F901895F894FFCF20
:00000001FF
