:100000000C9446000C9465000C9465000C946500FB
:100010000C9465000C9465000C9465000C946500CC
:100020000C9465000C9465000C9465000C946500BC
:100030000C9465000C9465000C947A000C94650097
:100040000C9465000C9465000C9465000C9465009C
:100050000C9465000C9465000C9465000C9465008C
:100060000C9465000C9465000C9465000C9465007C
:100070000C9465000C9465000C9465000C9465006C
:100080000C9465000C9465000C94650011241FBE4F
:10009000CFEFD0E1DEBFCDBF11E0A0E0B1E0E4EFF3
:1000A000F1E000E00BBF02C007900D92A030B10755
:1000B000D9F711E0A0E0B1E001C01D92A730B1076F
:1000C000E1F70E9467000C94F8000C940000F8948B
:1000D000109261008FEF87BB789484E087BF1FBCCC
:1000E00085E08EBD8FEF8DBD80EC8CBD17B883E8A9
:1000F00086B9FFCF1F920F920FB60F9211242F9344
:100100003F935F936F937F938F939F93AF93BF932F
:10011000F8948EEF8DBD86EC8CBD369A3699FECF65
:1001200084B18093040185B180930301309104016F
:1001300020910301922F80E0830F911D6EE170E00A
:100140000E94D10070930601609305018091010126
:1001500090910201019690930201809301012091F8
:10016000010130910201809105019091060128174B
:10017000390718F480E188BB05C018BA1092020153
:10018000109201017894BF91AF919F918F917F91CF
:100190006F915F913F912F910F900FBE0F901F9025
:1001A000189597FB092E07260AD077FD04D00CD0AE
:1001B00006D000201AF4709561957F4F0895F6F7E8
:1001C000909581959F4F0895AA1BBB1B51E107C0D5
:1001D000AA1FBB1FA617B70710F0A61BB70B881FD7
:1001E000991F5A95A9F780959095BC01CD01089566
:0401F000F894FFCFB1
:00000001FF
