:100000000C9446000C945D000C945D000C945D0013
:100010000C945D000C945D000C945D000C945D00EC
:100020000C945D000C945D000C945D000C945D00DC
:100030000C945D000C945D000C945D000C945D00CC
:100040000C945D000C945D000C945D000C945D00BC
:100050000C945D000C945D000C945D000C945D00AC
:100060000C945D000C945D000C945D000C945D009C
:100070000C945D000C9472000C945D000C945D0077
:100080000C945D000C945D000C945D0011241FBE67
:10009000CFEFD0E1DEBFCDBF11E0A0E0B1E0EEE6F2
:1000A000F1E000E00BBF02C007900D92A230B10753
:1000B000D9F70E945F000C94B5000C940000F894EE
:1000C0008FEF87BB789484E080937D0010928B0043
:1000D00085E080938A008FEF8093890080EC809385
:1000E0008800FFCF1F920F920FB60F920BB60F92A0
:1000F00011242F933F938F939F93EF93FF93F89443
:100100008EEF8093890086EC8093880080910001B7
:1001100090910101892B59F0109201011092000178
:100120008FEF88BB80EA9FE00197F1F710C081E074
:1001300090E0909301018093000118BA8EEB90E05B
:1001400020E931E0F9013197F1F70197D9F7789477
:10015000FF91EF919F918F913F912F910F900BBE47
:0E0160000F900FBE0F901F901895F894FFCFD0
:02016E0001008E
:00000001FF
